:100000003A313030303030303033413331333033C7
:1000100030333033303330333033303333343133C3
:1000200033333133333330333343370D0A3A3130DE
:1000300030303130303033303333333033333330AA
:10004000333333303333333033333330333333328A
:1000500033333338333442440D0A3A31303030329E
:100060003030303334333433343333333033333369
:100070003033333338343134323044304133413328
:1000800031333043450D0A3A31303030333030307F
:100090003330333033313330333033303333333044
:1000A000333333343334333333333333333333321F
:1000B00041330D0A3A31303030343030303333335D
:1000C0003033333330333333383333333033333304
:1000D0003133333330333333333333333238410D09
:1000E0000A3A313030303530303033333330333317
:1000F00033303333333834313435304430413341A5
:100100003331333033303330333241350D0A3A3105
:1001100030303036303030333033303330333333C7
:10012000303333333533343335333433343334339A
:100130003333333330333336370D0A3A31303030DE
:100140003730303033303333333833333330333484
:100150003336333333313330343433303431333373
:100160003431333332380D0A3A31303030383030B0
:10017000303331333333303431343530443041333C
:100180004133313330333033303333333033303342
:100190003038310D0A3A3130303039303030333385
:1001A000333033333330333333313333333033332A
:1001B0003330333333303333333633333336334200
:1001C0000D0A3A313030304130303033343334334B
:1001D00034333333333330333333303333333833EF
:1001E000333330333333383333333831370D0A3A1E
:1001F00031303030423030303337333430443041B6
:1002000033413331333033303330333433303330C0
:10021000333033333333333336360D0A3A313030FB
:1002200030433030303332333333303333333033A1
:100230003333383333333033333336333433353386
:10024000343334333446430D0A3A3130303044309D
:100250003030333333333330333333303333333875
:100260003333333033343332333333383333343658
:10027000304430320D0A3A31303030453030303091
:10028000413341333133303330333033353330332E
:10029000303330333333333333333233333330313A
:1002A000380D0A3A31303030463030303333333065
:1002B000333333383333333033343332333333300F
:1002C00033303434333034313333343141440D0A34
:1002D0003A313030313030303033333331333333FF
:1002E00030333333303333333033333332343234E7
:1002F00034304430413341333146350D0A3A3130E0
:1003000030313130303033303330333033363330D6
:1003100033303330333333303333333033333330BC
:1003200033333335333343350D0A3A3130303132DC
:100330003030303334333333333333333333333395
:100340003033333330333333383333333033333381
:1003500038333439430D0A3A3130303133303030AC
:10036000333333333333333333333333333033355E
:10037000333830443041334133313330333033302C
:1003800044450D0A3A313030313430303033373370
:100390003033303330333333303333333833333334
:1003A0003033333336333433353334333437440D29
:1003B0000A3A31303031353030303334333333333F
:1003C0003330333333303333333833333330333301
:1003D0003332333333303333333337360D0A3A3134
:1003E00030303136303030333333333333333033EE
:1003F00032333630443041334133313330333033AC
:100400003033383330333042340D0A3A3130303102
:1004100037303030333033333330333333383333B2
:10042000333033343335333433343330343433309E
:100430003431333333350D0A3A31303031383030DE
:100440003034313333333133333330333333303388
:100450003333303333333333333330333333303375
:100460003334320D0A3A31303031393030303330B4
:10047000333734313044304133413331333033302A
:10048000333033393330333033303333333637333B
:100490000D0A3A3130303141303030333433353376
:1004A000343334333433333333333033333330331F
:1004B000333338333333303333333631410D0A3A43
:1004C00031303031423030303334333533343334FB
:1004D00033343333333333303333333033333338EC
:1004E000333333303433343345440D0A3A3130300A
:1004F00031433030303044304133413331333033A5
:1005000030333034313330333033303333333633C8
:10051000343335333434360D0A3A313030314430E7
:1005200030303334333433333333333033333330A5
:100530003333333833333330333333363334333583
:10054000333445410D0A3A313030314530303033A3
:10055000343334333333333330333333303333336F
:100560003833333330343234333044304133413034
:10057000410D0A3A3130303146303030333133308A
:100580003330333034323330333033303333333944
:1005900033333338333034343330343142300D0A6E
:1005A0003A3130303230303030333334313333332A
:1005B0003133333330333333303333333033333316
:1005C00034333333303333333043300D0A3A313040
:1005D00030323130303033333330333433353334F9
:1005E00033333333333333333435304430413341B1
:1005F00033313330333045420D0A3A313030323204
:1006000030303033303433333033303330333333CE
:1006100032333333303333333033333338333333AC
:1006200030333339460D0A3A3130303233303030DE
:100630003336333433353334333433343333333381
:10064000333033333330333333383333333033337E
:1006500038390D0A3A3130303234303030333033BB
:100660003333303333333034343433304430413344
:100670004133313330333033303434333041420D51
:100680000A3A313030323530303033303330333372
:100690003330333333303333333033333330333336
:1006A0003330333333303333333038390D0A3A3162
:1006B000303032363030303333333033333330331D
:1006C0003333303333333033333330333333303306
:1006D0003333343333333836410D0A3A3130303224
:1006E00037303030333034343333333730443041C3
:1006F00033413331333033303330343533303330CA
:100700003330333038390D0A3A3130303238303006
:1007100030343133333431333333313333333033B3
:1007200033333033333330333333353333333033A0
:100730003332450D0A3A31303032393030303330CF
:100740003333333033333330333333303333333085
:10075000333333303333333033333330333234376E
:100760000D0A3A3130303241303030333630443097
:100770004133413331333033303330343633303337
:10078000303330333333303333333036410D0A3A7C
:100790003130303242303030333333303333333032
:1007A0003333333033333330333333303333333025
:1007B000333333303333333032360D0A3A3130305D
:1007C00032433030303333333033333330333333F9
:1007D00030333333303333333033333330333033F8
:1007E000303044304136350D0A3A31303032443001
:1007F00030303341333133303330333133303330D1
:1008000033303330333333303333333033333330C7
:10081000333330360D0A3A313030324530303033F0
:1008200030333333303333333033333330333333A4
:10083000303333333033333330333433313333467F
:10084000340D0A3A313030324630303033303330C4
:10085000343433303431333334313333333133316F
:1008600034333044304133413331333045420D0A63
:100870003A3130303330303030333033313331335C
:100880003033303330333333303333333033333347
:1008900030333333363333333044360D0A3A313064
:1008A000303331303030333333303333333033332C
:1008B0003330333333303333333033333330333314
:1008C00033303333333043350D0A3A31303033323D
:1008D00030303033333330333333303333333034F9
:1008E00034333930443041334133313330333033B2
:1008F00031333245320D0A3A313030333330303013
:1009000033303330333033333330333333303333C6
:1009100033303333333033333330333333303333B3
:1009200041380D0A3A3130303334303030333033DF
:100930003333303333333033333330333333303393
:100940003333303333333033333330333339350D9E
:100950000A3A31303033353030303330333333309E
:100960003433343630443041334133313330333033
:100970003331333333303330333041420D0A3A317F
:100980003030333630303033333330333333303349
:100990003333303333333033333330333333303333
:1009A0003333303333333936430D0A3A3130303351
:1009B0003730303033333330333034343330343114
:1009C0003333343133333331333333303333333000
:1009D0003333333033340D0A3A313030333830303A
:1009E00030343633343044304133413331333033B3
:1009F00030333133343330333033303333333733D0
:100A00003337460D0A3A31303033393030303330F5
:100A100033333330333333303333333033333330B2
:100A2000333333303333333033333330333334359C
:100A30000D0A3A31303033413030303330333333D4
:100A40003033333330333333303333333033333382
:100A5000303333333034313338304434350D0A3A9F
:100A60003130303342303030304133413331333044
:100A70003330333133353330333033303333333055
:100A8000333333303333333034390D0A3A31303085
:100A90003343303030333333303333333033333325
:100AA0003033333330333333303333333033333322
:100AB000303333333031350D0A3A3130303344304E
:100AC0003030333333303333333033333330333305
:100AD00033303333333033393436304430413341BB
:100AE000333132440D0A3A3130303345303030330F
:100AF00030333033313336333033303330333333D4
:100B000030333333303333333033333330333346AE
:100B1000370D0A3A313030334630303033383333E2
:100B2000333033303434333034313333343133339E
:100B300033313333333033333330333341430D0ABE
:100B40003A3130303430303030333033333338337F
:100B50003333303333333034323434304430413350
:100B600041333133303330333146320D0A3A31308C
:100B70003034313030303337333033303330333357
:100B80003330333333303333333833333337333332
:100B900033303333333042340D0A3A31303034326B
:100BA000303030333333303333333033333338331F
:100BB0003333323334333333333337333333303304
:100BC00033333039460D0A3A313030343330303037
:100BD00033343335333333303333333730443041C8
:100BE00033413331333033303331333833303330D2
:100BF00044420D0A3A3130303434303030333033FF
:100C000034333333333332333333363333333233B2
:100C10003333373333333033333338333337370DBC
:100C20000A3A3130303435303030333733333330C3
:100C30003334333633343336333433323334333678
:100C40003333333333333334333335450D0A3A31A9
:100C50003030343630303033313435333030443066
:100C6000413341333133303330333133393330333F
:100C70003033303334333341330D0A3A313030348A
:100C80003730303033333336333333373330343433
:100C9000333034313333343133333331333333302E
:100CA0003333333032360D0A3A3130303438303065
:100CB0003033333330333333393333333033333307
:100CC00030333333303334333433333337333533F2
:100CD0003933340D0A3A3130303439303030304421
:100CE00030413341333133303330333134313330C9
:100CF00033303330333333323333333133333743B9
:100D00000D0A3A31303034413030303332333433FD
:100D1000333333333733333330333333393333339C
:100D2000303333333933343336333430440D0A3AC5
:100D3000313030344230303033323333333933337F
:100D40003332333333313333333033333334343575
:100D5000333630443041334133460D0A3A31303076
:100D60003443303030333133303330333134323355
:100D70003033303330333333303333333033343351
:100D8000323333333930300D0A3A31303034443075
:100D9000303033343336333333313333333033332A
:100DA0003338333333303333333033333332333315
:100DB000333645430D0A3A31303034453030303324
:100DC00033333233333337333433333333333034F1
:100DD00035333130443041334133313330333031C6
:100DE000420D0A3A3130303446303030333134330A
:100DF00033303330333033303434333034313333D1
:100E000034313333333133333330333341350D0AF7
:100E10003A313030353030303033303333333033B3
:100E2000343331333333303333333033333330339C
:100E300033333033343333333443430D0A3A3130B0
:100E4000303531303030333633333330333333377A
:100E50003332343330443041334133313330333043
:100E600033313434333044430D0A3A313030353283
:100E7000303030333033303333333433333336334D
:100E8000333330333333303333333833333337332F
:100E900033333039440D0A3A313030353330303065
:100EA000333333303333333033333334333333301A
:100EB00033333332333333363334333633333337F8
:100EC00038390D0A3A31303035343030303333333D
:100ED00032343434323044304133413331333033BF
:100EE0003033313435333033303330333341350DF3
:100EF0000A3A3130303535303030333633333332EF
:100F000033343336333433323333333133333332B0
:100F10003333333133333333333336410D0A3A31DC
:100F20003030353630303033383333333233333397
:100F30003133333332333433323330343433303487
:100F40003133333431343632300D0A3A31303035C2
:100F5000373030303338304430413341333133303F
:100F6000333033313436333033303330333333315D
:100F70003333333039330D0A3A313030353830308D
:100F8000303333333033333330333433323333333A
:100F9000303333333033333330333333303333332D
:100FA0003434430D0A3A3130303539303030333350
:100FB00033303333333033333337333333373333FF
:100FC00033343333333134343335304430413636CF
:100FD0000D0A3A313030354130303033413331331E
:100FE00030333033323330333033303330333333E4
:100FF000373333333733333335333331460D0A3AEE
:1010000031303035423030303331333333353333B0
:101010003337333333343333333833333336333393
:10102000333633333334333346410D0A3A313030BB
:101030003543303030333533343332333333313377
:101040003333343333333233393334304430413350
:10105000413331333034310D0A3A31303035443098
:101060003030333033323331333033303330333365
:101070003333333333303333333533333331333343
:10108000333546420D0A3A31303035453030303351
:101090003333373333333333333338333333363314
:1010A0003433363330343433303431333334314104
:1010B000340D0A3A31303035463030303333333145
:1010C00033333330333333303435333030443041DD
:1010D00033413331333033303332333231360D0A2A
:1010E0003A313030363030303033303330333033E3
:1010F00033333033343333333333303333333033C8
:1011000033333033333337333343410D0A3A3130DD
:1011100030363130303033373333333633333331A5
:101120003333333633333336333333333333333686
:1011300033343332333339430D0A3A3130303632B7
:10114000303030333133333333333734323044306B
:10115000413341333133303330333233333330334F
:1011600030333045330D0A3A313030363330303099
:101170003333333533343332333333383333333734
:10118000333333373333333133333338333333312A
:1011900037410D0A3A313030363430303033333362
:1011A0003033333338333333323333333033333311
:1011B0003333333330333333393333333037430D11
:1011C0000A3A31303036353030303337333130440D
:1011D00030413341333133303330333233343330D1
:1011E0003330333033333330333343340D0A3A3111
:1011F00030303636303030333033333331333333CD
:1012000030333333303334333633333330333034B5
:101210003433303431333334420D0A3A31303036DE
:101220003730303034313333333133333330333399
:101230003330333333303334333433333330343384
:101240003331304436300D0A3A31303036383030B0
:10125000303041334133313330333033323335334F
:10126000303330333033333330333333303333335D
:101270003337320D0A3A313030363930303033338B
:10128000333833343336333333313333333033332A
:10129000333833333330333333303333333232381C
:1012A0000D0A3A3130303641303030333333343355
:1012B00033333133343333333433353333333133FE
:1012C000343334304430413341333136310D0A3A0E
:1012D00031303036423030303330333033323336E1
:1012E00033303330333033343336333333303333D6
:1012F000333333333334333331350D0A3A3130300D
:1013000036433030303331333333343334333233A4
:10131000333331333433363333333133343331339E
:10132000343332333346430D0A3A313030364430A9
:101330003030333233333338333333303333333184
:10134000333133343044304133413331333033304F
:10135000333233440D0A3A31303036453030303391
:101360003733303330333033333330333333303358
:101370003333323333333033303434333034314435
:10138000300D0A3A31303036463030303333343174
:101390003333333133333330333333303333333028
:1013A00033343335333333303333333043410D0A41
:1013B0003A31303037303030303333333033333309
:1013C00033343133323044304133413331333033CD
:1013D00030333233383330333030310D0A3A313034
:1013E00030373130303033303333333033343336D9
:1013F00033333331333333303333333433333332C2
:1014000033333330333342330D0A3A3130303732ED
:1014100030303033323333333433333331333333A7
:101420003433343335333333313334333633333386
:1014300030333439370D0A3A3130303733303030C9
:101440003333333033373044304133413331333049
:101450003330333233393330333033303333333462
:1014600044420D0A3A313030373430303033333380
:10147000323333333033333333333333343333333F
:101480003133333334333433323333333137460D3E
:101490000A3A313030373530303033343336333345
:1014A000333133333338333333323333333033330D
:1014B0003338333333363330343135330D0A3A3140
:1014C00030303736303030304430413341333133CF
:1014D00030333033323431333033303330333433EC
:1014E0003133303434333039420D0A3A3130303709
:1014F00037303030343133333431333333313333C5
:1015000033303333333033333330333433363333B0
:101510003330333333370D0A3A31303037383030E7
:10152000303330333333303333333333333338338F
:10153000333337333333303335333330443041335F
:101540004137460D0A3A3130303739303030333197
:10155000333033303332343233303330333033336B
:101560003331333433333333333033343331333152
:101570000D0A3A3130303741303030333433343380
:101580003433333333333733333330333333343328
:10159000333330333333303333333031440D0A3A5D
:1015A0003130303742303030333333383333333205
:1015B00033333330333333333434343130443041E4
:1015C000334133313330333033390D0A3A3130302F
:1015D00037433030303332343333303330333033D9
:1015E00033333033333334333333323333333433CD
:1015F000343336333346310D0A3A313030374430E4
:1016000030303332333333303333333233333330B8
:101610003333333433333332333333353334333496
:10162000333445430D0A3A313030374530303033AA
:101630003333303434333034313332333130443077
:10164000413341333133303330333234343330305B
:10165000360D0A3A3130303746303030333033309F
:101660003333343133333331333333303333333053
:1016700033333331333333303333333044310D0A82
:101680003A31303038303030303333333033333335
:10169000303333333033343332333333393333331A
:1016A00031333333303333333542450D0A3A313039
:1016B00030383130303033333330343633313044F6
:1016C00030413341333133303330333234353330DA
:1016D00033303330333345320D0A3A31303038321B
:1016E00030303033303333333333333330333433D8
:1016F00036333333313333333233333334333333B9
:1017000031333339450D0A3A3130303833303030E7
:101710003334333433353333333133343336333393
:101720003330333333303333333033333330343295
:1017300037460D0A3A3130303834303030343430B6
:101740004430413341333133303330333234363344
:101750003033303330333333303334333342300D7E
:101760000A3A313030383530303033333334333374
:10177000333233333330333333303334333333333F
:101780003337333333303334333336420D0A3A315F
:101790003030383630303033333334333034343320
:1017A0003034313333343133333331333333303412
:1017B0003633323044304137320D0A3A3130303826
:1017C00037303030334133313330333033333330EB
:1017D00033303330333033333330333333313333E7
:1017E0003331333335430D0A3A3130303838303005
:1017F00030333033333330333333303333333133C7
:1018000033333833333330333433313333333333A7
:101810003334320D0A3A31303038393030303338E1
:101820003333333633333337333333303333333483
:101830003432333530443041334133313330354144
:101840000D0A3A31303038413030303330333333B1
:101850003133303330333033333330333333303369
:10186000333338333333323333333032420D0A3A81
:101870003130303842303030333333333333333632
:10188000333333343333333633333338333433361B
:10189000333333323333333046430D0A3A31303049
:1018A00038433030303333333333333331333333FE
:1018B00034333933383044304133413331333033CA
:1018C000303333333233460D0A3A31303038443016
:1018D00030303330333033303333333533333339DF
:1018E00033333335333333363333333633333335BE
:1018F000333444450D0A3A313030384530303033D6
:1019000031333433333330343433303431333334AC
:101910003133333331333333303333333033334292
:10192000410D0A3A313030384630303033313333BC
:101930003332343333303044304133413331333058
:1019400033303333333333303330333031370D0AC0
:101950003A31303039303030303333333033333361
:101960003033333330333433323333333933333347
:1019700036333333373333333042360D0A3A31306E
:101980003039313030303333333433333330333331
:101990003330333433353333333133343336333315
:1019A00033303333333041440D0A3A313030393239
:1019B00030303033363335304430413341333133D6
:1019C00030333033333334333033303330333333F5
:1019D00030333345440D0A3A31303039333030300A
:1019E00033303333333033343333333333343333CB
:1019F00033323333333033333330333433333333BD
:101A000039310D0A3A3130303934303030333733F0
:101A10003333303333333133333338333333303399
:101A20003433313333333333353434304438410D88
:101A30000A3A31303039353030303041334133318A
:101A40003330333033333335333033303330333373
:101A50003338333333363333333738430D0A3A317F
:101A60003030393630303033343332333333393346
:101A7000303434333034313333343133333331333E
:101A80003333303333333033320D0A3A3130303977
:101A90003730303033333331333333333333333020
:101AA00033333330333333303431333730443041F0
:101AB0003341333138410D0A3A3130303938303022
:101AC00030333033303333333633303330333033F5
:101AD00033333033333334333333303333333033DE
:101AE0003334420D0A3A31303039393030303338FE
:101AF00033333332333333303333333433333336B6
:101B000033343333333333363333333033333231A7
:101B10000D0A3A31303039413030303331333333DC
:101B20003033333330333333303335343230443081
:101B3000413341333133303330333336310D0A3AA8
:101B40003130303942303030333733303330333066
:101B50003334333633333332333333303333333454
:101B6000333333313334333330430D0A3A31303089
:101B70003943303030333333353333333033333329
:101B8000313333333133333330333333303333332F
:101B9000353333333646440D0A3A31303039443028
:101BA00030303333333633333335333333303044FB
:101BB00030413341333133303330333333383330E2
:101BC000333033360D0A3A31303039453030303326
:101BD00030333333323334333233303434333034DC
:101BE00031333334313333333133333330333342BE
:101BF000390D0A3A313030394630303033303333F2
:101C000033313333333433333330333333303333AB
:101C100033303334333233333339333343450D0ABE
:101C20003A31303041303030303336333733313081
:101C3000443041334133313330333033333339334C
:101C400030333033303333333730300D0A3A3130BC
:101C50003041313030303333333033333334333356
:101C60003330333333303334333533333331333448
:101C700033363333333041430D0A3A313030413259
:101C80003030303333333033333330333333303336
:101C90003333303334333333333334333333323316
:101CA00030343439330D0A3A31303041333030304A
:101CB00030443041334133313330333033333431D6
:101CC00033303330333033333330333333303334F2
:101CD00044360D0A3A31303041343030303333330A
:101CE00033333733333330333333313333333833C0
:101CF0003333303334333133333333333337360DD7
:101D00000A3A3130304135303030333833333336BE
:101D10003333333733333339333333393330343484
:101D20003331333230443041334138420D0A3A3195
:101D30003030413630303033313330333033333478
:101D40003233303330333033303431333334313372
:101D50003333313333333034340D0A3A3130304198
:101D6000373030303333333033333331333333354B
:101D7000333333303333333033333330333333303F
:101D80003333333435340D0A3A3130304138303062
:101D90003033333330333333303333333833333317
:101DA00032333433343044304133413331333033E0
:101DB0003038360D0A3A3130304139303030333333
:101DC00034333330333033303333333033333336EB
:101DD00033333336333433333333333633333138C9
:101DE0000D0A3A3130304141303030333033333303
:101DF00032333333303333333033333330333433BC
:101E0000323333333933333336333331410D0A3AD6
:101E10003130304142303030333733333330333385
:101E2000333434343431304430413341333133305E
:101E3000333033333434333032370D0A3A313030C3
:101E40004143303030333033303333333033333356
:101E50003033343336333333323333333033343354
:101E6000313333333130350D0A3A3130304144307B
:101E70003030333433333333333533333330333338
:101E80003339333433323330343433303431333321
:101E9000343142390D0A3A31303041453030303337
:101EA00033333134363435304430413341333133D8
:101EB00030333033333435333033303330333346EB
:101EC000410D0A3A3130304146303030333033330F
:101ED00033303333333133333336333333303333D7
:101EE00033303333333033333332333344350D0A05
:101EF0003A313030423030303033313333333033B5
:101F0000333330333333353333333633333336339C
:101F100033333533343332343441320D0A3A3130CD
:101F2000304231303030343230443041334133315B
:101F3000333033303333343633303330333033337C
:101F400033393333333644330D0A3A313030423289
:101F50003030303333333733333330333333343358
:101F60003333303333333033343331333333393342
:101F700033333039370D0A3A313030423330303074
:101F8000333333373333333833333334333333301A
:101F900033343333333433313339333230443041F3
:101FA00043380D0A3A313030423430303033413327
:101FB0003133303330333433303330333033303304
:101FC0003333393333333033333337333337410DEE
:101FD0000A3A3130304235303030333833333336EB
:101FE00033333330333433333333333033343334C4
:101FF0003330343433303431333334370D0A3A31FB
:1020000030304236303030343133333331333333A0
:102010003033333330333333313435333430443089
:102020004133413331333038420D0A3A3130304296
:102030003730303033303334333133303330333082
:102040003333333733333330333333303333333065
:102050003334333535340D0A3A313030423830308C
:102060003033333331333433363333333033333344
:10207000303333333033333330333333303334333B
:102080003334310D0A3A3130304239303030333365
:102090003334333333323333333033393330304402
:1020A00030413341333133303330333433323735E9
:1020B0000D0A3A3130304241303030333033303332
:1020C00030333333303334333333333337333333E1
:1020D000303333333133333338333331430D0A3A0A
:1020E00031303042423030303330333433313333B7
:1020F00033333333333833333336333333373333A4
:10210000333033333334333346460D0A3A313030CB
:10211000424330303033303333333033373433307D
:10212000443041334133313330333033343333335C
:10213000303330333033460D0A3A31303042443098
:102140003030333333383333333233333330333364
:102150003333333333303333333433303434333055
:10216000343143440D0A3A31303042453030303357
:102170003334313333333133333330333333303338
:102180003333313333333833333330333333304411
:10219000320D0A3A31303042463030303435333047
:1021A00030443041334133313330333033343334DE
:1021B00033303330333033333330333331300D0A4F
:1021C0003A313030433030303033363333333433D8
:1021D00033333633333334333433363333333233C8
:1021E00033333033333333333341430D0A3A3130F1
:1021F00030433130303033313333333433333335AC
:102200003333333533333335333333363333333694
:1022100033353434304441430D0A3A31303043329F
:102220003030303041334133313330333033343375
:102230003533303330333033333335333433323373
:1022400033333942430D0A3A313030433330303082
:102250003333333633333337333333303333333449
:102260003333333033333330333433353333333143
:1022700038340D0A3A31303043343030303334336F
:102280003633333330333333303333333033333324
:102290003033333436304430413341333142330DFF
:1022A0000A3A313030433530303033303330333424
:1022B00033363330333033303333333033333339F1
:1022C0003333333933303434333035420D0A3A3115
:1022D00030304336303030343133333431333333CC
:1022E00031333333303333333033333331333333C8
:1022F0003933333330333333460D0A3A31303043D8
:1023000037303030333033333330333433333333A7
:102310003334333933373044304133413331333060
:102320003330333438440D0A3A31303043383030AA
:102330003033373330333033303333333233333376
:102340003033333333333333343333333133333361
:102350003433440D0A3A313030433930303033347D
:10236000333233333331333433363333333133333E
:102370003338333333323333333033343336314617
:102380000D0A3A3130304341303030333333343357
:1023900034333233303435304430413341333133E8
:1023A000303330333433383330333035340D0A3A48
:1023B00031303043423030303330333433363333DE
:1023C00033333333333033333331333333303333E5
:1023D000333033333330333331310D0A3A31303027
:1023E00043433030303338333333373333333033A0
:1023F00033333033333330333333333333333033B6
:10240000333331333346390D0A3A313030434430B7
:102410003030333933333336304430413341333164
:102420003330333033343339333033303330333087
:10243000343431460D0A3A31303043453030303390
:102440003034313333343133333331333333303366
:102450003333303333333133343331333333304345
:10246000390D0A3A3130304346303030333333306F
:10247000333333303334333233333339333333302C
:1024800033333337333333303336333643300D0A57
:102490003A313030443030303030443041334133E1
:1024A000313330333033343431333033303330330D
:1024B00033333433333330333346460D0A3A313015
:1024C00030443130303033313334333233333339D5
:1024D00033333330333333373333333033333338C9
:1024E00033333330333339460D0A3A3130304432E6
:1024F00030303033313334333233333339333333B1
:10250000303333333733333330343634313044308F
:1025100041334142380D0A3A3130304433303030A3
:10252000333133303330333434323330333033308B
:10253000333433333333333033333331333433326F
:1025400038380D0A3A313030443430303033333398
:102550003933333330333333373333333133333346
:102560003033333330333333313333333237370D62
:102570000A3A31303044353030303333333333304E
:10258000343433303431333334313333343530440D
:102590003041334133313330333037410D0A3A3132
:1025A00030304436303030333434333330333033FA
:1025B00030333333313333333033333330333333F6
:1025C0003133343332333335350D0A3A3130304418
:1025D00037303030333033333330333333303334D8
:1025E00033323333333933333330333333373333B5
:1025F0003331333334370D0A3A31303044383030E8
:1026000030333433333330333333313436333030A3
:102610004430413341333133303330333434343365
:102620003036380D0A3A31303044393030303330BA
:10263000333033333333333333303334333633336C
:10264000333133333332333333343333333132434F
:102650000D0A3A3130304441303030333333343383
:102660003433353333333133343336333333303338
:10267000333330333333303333333031390D0A3A77
:10268000313030444230303033333330343334320D
:1026900030443041334133313330333033343435E7
:1026A000333033303330333332440D0A3A31303043
:1026B00044433030303333333333343333333133D3
:1026C00033333433333330333333343333333233DC
:1026D000333331333446370D0A3A313030444430E5
:1026E00030303334333333333330343433303431C4
:1026F00033333431333333313333333033333330B3
:10270000333243340D0A3A313030444530303033BF
:10271000303044304133413331333033303334346B
:102720003633303330333033333331333433333182
:10273000430D0A3A31303044463030303333333091
:102740003333333033333330333433323333333161
:1027500033343336333333313333333443420D0A76
:102760003A31303045303030303334333233333334
:102770003833333335333333303333333133333327
:1027800030333934313044304145450D0A3A313027
:1027900030453130303033413331333033303335FD
:1027A0003330333033303330333333303333333902
:1027B00033333338333341350D0A3A313030453213
:1027C00030303033373333333033333332333433E1
:1027D00035333333323333333033333338333333C6
:1027E00032333338460D0A3A3130304533303030E9
:1027F00033313333333233333335333433333333A9
:10280000333733383435304430413341333133306A
:1028100042340D0A3A3130304534303030333033C1
:102820003533313330333033303333333033343383
:102830003633333330333333303333333038360D8C
:102840000A3A313030453530303033333331333379
:10285000333633303434333034313333343133334B
:102860003331333333303333333034320D0A3A318A
:102870003030453630303033333331333433343322
:1028800033333034353337304430413341333133EF
:102890003033303335333238450D0A3A3130304534
:1028A0003730303033303330333033333330333309
:1028B00033303334333333343333333333373333E5
:1028C0003330333334450D0A3A3130304538303007
:1028D00030333833333330333333303333333033CF
:1028E00033333933333332333333303334333433B4
:1028F0003333320D0A3A31303045393030303330ED
:10290000333333343337333330443041334133316D
:10291000333033303335333333303330333037378C
:102920000D0A3A31303045413030303333333733AC
:102930003333313333333933333339333333373359
:10294000333330333333333333333230340D0A3AA5
:10295000313030454230303033333332333333303B
:10296000333333393333333933333337333333302A
:10297000333333333333333146420D0A3A31303057
:1029800045433030303337333630443041334133D0
:102990003133303330333533343330333033303315
:1029A000333332333334320D0A3A31303045443028
:1029B00030303330333333393334333133303434EC
:1029C00033303431333334313333333133333330E1
:1029D000333342450D0A3A313030454530303033DB
:1029E00030333333313334333533333330333333BC
:1029F0003033333330333333393431343530444486
:102A0000440D0A3A313030454630303030413341A0
:102A10003331333033303335333533303330333093
:102A200033333339333333303333333046310D0AB4
:102A30003A31303046303030303333333333333360
:102A4000333333333233333330333333303333335D
:102A500034333333323333333042420D0A3A313078
:102A60003046313030303333333933333339333325
:102A7000333033333330333333323337333030441E
:102A800030413341333145350D0A3A313030463229
:102A90003030303330333033353336333033303316
:102AA00030333433363333333233333330333333F9
:102AB00034333439390D0A3A31303046333030301E
:102AC00033323333333633343331333333303333D8
:102AD00033323333333033333330333333333333CD
:102AE00038410D0A3A3130304634303030333033EB
:102AF00034333633333331333333333332333730A4
:102B00004430413341333133303330333542440D77
:102B10000A3A3130304635303030333733303330A5
:102B20003330333433363330343433303431333379
:102B30003431333333313333333034300D0A3A31B7
:102B40003030463630303033333330333333313353
:102B5000343336333333303333333033333330334A
:102B60003333323333333435420D0A3A3130304661
:102B70003730303033333331333333343338333128
:102B800030443041334133313330333033353338EF
:102B90003330333038450D0A3A3130304638303032
:102BA00030333033343335333333313334333633F6
:102BB00033333033333330333333383333333233E7
:102BC0003333310D0A3A313030463930303033301A
:102BD00033333330333333303333333033333330D1
:102BE00033333330333333383333333433333244A2
:102BF0000D0A3A31303046413030303330333233E1
:102C0000393044304133413331333033303335336D
:102C1000393330333033303333333036330D0A3ACF
:102C20003130304642303030333333303333333069
:102C30003333333033333332333433333333333268
:102C4000333333303333333031310D0A3A313030AE
:102C50004643303030333333303333333033333330
:102C60003133333333333333393330343433303433
:102C7000313338333044380D0A3A3130304644303D
:102C800030303044304133413331333033303335F9
:102C90003431333033303330333334313333333111
:102CA000333331450D0A3A31303046453030303318
:102CB00030333333303333333233333330333333EE
:102CC00030333333303333333033333332333445CB
:102CD000340D0A3A313030464630303033333333F6
:102CE00033343333333033333338333433333333B0
:102CF00033303330343130443041334146440D0AAF
:102D00003A313031303030303033313330333033AA
:102D1000353432333033303330333333313333338C
:102D200033333433333333333142330D0A3A3130B2
:102D30003130313030303333333033333331333378
:102D40003334333333303333333033333333333358
:102D500033363333333441360D0A3A313031303281
:102D6000303030333333323333333033333338333B
:102D70003333333330333430443041334133313300
:102D800030333045310D0A3A313031303330303064
:102D9000333534333330333033303333333033330C
:102DA00033303333333033333338333333303334F6
:102DB00037440D0A3A313031303430303033323329
:102DC00033333133343332333333313333333033DA
:102DD0003333333330343433303431333335460DD9
:102DE0000A3A3130313035303030343133333331E9
:102DF000333333303333333830443041334133317C
:102E00003330333033353434333039320D0A3A31DC
:102E10003031303630303033303330333333303399
:102E2000333332333333313333333033333330337B
:102E30003333303333333236360D0A3A31303130B2
:102E40003730303033343333333333333333333059
:102E50003333333033343333333433353333333044
:102E60003333333734300D0A3A3130313038303083
:102E700030333333373433343130443041334133FA
:102E8000313330333033353435333033303330331E
:102E90003335330D0A3A3130313039303030333454
:102EA00033333331333333303333333833343332F2
:102EB00033333330333333303333333133333237E7
:102EC0000D0A3A313031304130303033383333331A
:102ED00030333433343333333933343333333333BC
:102EE000313333333033333334343146420D0A3ADD
:102EF000313031304230303034353044304133417C
:102F0000333133303330333534363330333033309C
:102F1000333333303333333033380D0A3A313031D1
:102F2000304330303033333332333433333334336C
:102F30003233333330333333323334333233303468
:102F4000343330343144420D0A3A31303130443078
:102F5000303033333431333333313333333033334D
:102F60003330333333323333333234363431304425
:102F7000304130410D0A3A31303130453030303354
:102F80004133313330333033363330333033303311
:102F900030333333303333333033333330333345FB
:102FA000330D0A3A3130313046303030333033333C
:102FB00033303333333333343333333333323334E3
:102FC00033323333333433343335333343320D0A0E
:102FD0003A313031313030303033303333333233D3
:102FE00033333033333330333333303431333530BC
:102FF00044304133413331333046390D0A3A3130B0
:1030000031313130303033303336333133303330A7
:103010003330333333383334333333333330333380
:1030200033303333333041440D0A3A3130313132A9
:103030003030303333333833333330333333323368
:10304000333336333433323334333333333330334F
:1030500033333438430D0A3A313031313330303084
:103060003333333233333330333333303338333431
:1030700030443041334133313330333033363332FF
:1030800043450D0A3A31303131343030303330334A
:103090003033303333333633333333333433323303
:1030A0003333383333333833303434333036300D10
:1030B0000A3A313031313530303034313333343114
:1030C00033333331333333303333333033333332D9
:1030D0003333333333333330333334460D0A3A31F9
:1030E00030313136303030333033333330343433C1
:1030F0003830443041334133313330333033363379
:103100003333303330333039350D0A3A31303131E1
:103110003730303033333330333333363333333483
:10312000333333323333333033343333333433366E
:103130003333333034300D0A3A31303131383030B6
:10314000303333333033333330333333303333335B
:10315000313334333633333331333433363333333B
:103160003033370D0A3A3130313139303030333580
:1031700033373044304133413331333033303336F9
:103180003334333033303330333333303333373118
:103190000D0A3A3130313141303030333833333346
:1031A00035333333303333333033333330333333F6
:1031B000383333333033333330333331320D0A3A2B
:1031C00031303131423030303338333333373333C9
:1031D00033303333333033333331333333383333C2
:1031E000333033373434304430440D0A3A313031DF
:1031F0003143303030304133413331333033303389
:103200003633353330333033303334333333333391
:10321000373330343430410D0A3A313031314430B3
:10322000303033303431333334313333333133337B
:103230003330333333303333333233333334333364
:10324000333044310D0A3A3130313145303030338A
:103250003333303333333033333330333333383342
:1032600033333634313431304430413341333146F5
:10327000450D0A3A31303131463030303330333059
:103280003336333633303330333033333330333314
:1032900033303333333133333338333343420D0A2E
:1032A0003A31303132303030303330333333303301
:1032B00034333333343335333333303333333033E0
:1032C00033333033333330333342430D0A3A313002
:1032D00031323130303033303333333233343333CF
:1032E0003333333733333434304430413341333183
:1032F00033303330333644390D0A3A3130313232DB
:10330000303030333733303330333033333330339E
:103310003333303333333033333333333433333382
:1033200033333239430D0A3A3130313233303030B1
:103330003334333333333335333333303333333060
:10334000333333303334333433333338333433314A
:1033500037450D0A3A31303132343030303334337E
:103360003433303434333234333044304133413306
:103370003133303330333633383330333039440D32
:103380000A3A313031323530303033303330343145
:103390003333343133333331333333303333333006
:1033A0003333333233333335333334460D0A3A3122
:1033B00030313236303030333033333330333333EF
:1033C00030333333323334333333333336333333CD
:1033D0003033333330333335410D0A3A3130313203
:1033E000373030303330333633333044304133418B
:1033F00033313330333033363339333033303330A5
:103400003333333438440D0A3A31303132383030C6
:103410003033333330333333323333333633333380
:103420003533343333333333333333333633333366
:103430003632360D0A3A31303132393030303333AA
:103440003337333433323333333933333332333442
:103450003335333333313333333434353339464210
:103460000D0A3A313031324130303030443041335E
:10347000413331333033303336343133303330331A
:10348000303333333033333330333335430D0A3A4B
:103490003130313242303030333033333334333300
:1034A00033333333333133333330333333363333EE
:1034B000333433343332333330310D0A3A3130312F
:1034C00032433030303333333333323330343433C8
:1034D00030343133333431333333313335343630C0
:1034E000443041334146440D0A3A313031324430A0
:1034F00030303331333033303336343233303330AD
:103500003330333333303333333033333332333395
:10351000333645310D0A3A313031324530303033AF
:103520003333303333333033333330333333303377
:103530003333363334333433333332333333304449
:10354000390D0A3A3130313246303030333333348A
:103550003333333233333330333333303331333047
:1035600030443041334133313330333031390D0A57
:103570003A31303133303030303336343333303326
:103580003033303334333233333330333333343313
:1035900033333033333330333341420D0A3A313031
:1035A0003133313030303330333333303333333001
:1035B00033333338333333373333333033333330D8
:1035C00033333330333341360D0A3A31303133320D
:1035D00030303033313333333033333330333033CF
:1035E0003430443041334133313330333033363487
:1035F00034333044360D0A3A3130313333303030E1
:103600003330333033333334333333323333333093
:103610003333333333333338333433333333333770
:1036200037430D0A3A3130313334303030333433AC
:103630003433333338333034343330343133333458
:103640003133333331333333303333333034370D75
:103650000A3A31303133353030303333333233306E
:103660003436304430413341333133303330333604
:103670003435333033303330333339320D0A3A3165
:103680003031333630303033373333333033333314
:103690003033333330333433343333333033343300
:1036A0003433343332333335310D0A3A3130313338
:1036B00037303030333033333336333333363333DC
:1036C00033323333333033333336333333333333CB
:1036D0003332343232440D0A3A31303133383030FB
:1036E0003033303044304133413331333033303391
:1036F000363436333033303330333333303333339F
:103700003637330D0A3A31303133393030303333D4
:103710003334333333323333333033333336333379
:10372000333533333332333333303334333231465A
:103730000D0A3A31303133413030303333333033A6
:103740003333343333333033333330333333303351
:10375000333330343334323044304134420D0A3A5A
:103760003130313342303030334133313330333024
:10377000333733303330333033303334333333341F
:10378000333333343333333330330D0A3A3130315A
:1037900033433030303330333433363333333833EC
:1037A00030343433303431333334313333333133F1
:1037B000333330333343350D0A3A3130313344300B
:1037C00030303330333333323333333833333330D1
:1037D0003333333034333336304430413341333193
:1037E000333031430D0A3A313031334530303033E4
:1037F00030333733313330333033303333333033A6
:103800003433363334333633333330333333304475
:10381000380D0A3A313031334630303033333330BB
:10382000333333363333333633343335333333385A
:1038300033333332333333303333333342360D0A99
:103840003A31303134303030303334333333333352
:10385000363334333333353333304430413341330B
:1038600031333033303337333246320D0A3A313068
:10387000313431303030333033303330333433342B
:103880003333333933333332333333303334333404
:1038900033333330333341320D0A3A31303134323D
:1038A00030303033383333333733333330333333EB
:1038B00031333433333334333533333331333333D8
:1038C00032333438360D0A3A313031343330303017
:1038D000333333333337333433313044304133418E
:1038E00033313330333033373333333033303330B5
:1038F00043450D0A3A3130313434303030333333CC
:10390000303333333333333333333034343330348D
:103910003133333431333333313333333034440D93
:103920000A3A313031343530303033333330333399
:103930003332333333393333333033333330333358
:103940003330333333303333333136380D0A3A3191
:103950003031343630303034353335304430413323
:103960004133313330333033373334333033303322
:103970003033343335333338390D0A3A313031345A
:103980003730303033393334333233333339333300
:1039900033373333333633333332333333343333F0
:1039A0003330333332430D0A3A313031343830302A
:1039B00030333033333335333333383334333333D5
:1039C00033333133333330333333343333333830C9
:1039D0004434430D0A3A31303134393030303041DB
:1039E00033413331333033303337333533303330A1
:1039F000333033333330333333303333333334468C
:103A00000D0A3A31303134413030303333333033D2
:103A10003433323333333133333332333433333378
:103A2000333331333333303333333131380D0A3AB2
:103A30003130313442303030333333343333333058
:103A40003333333033343334333333333335333147
:103A5000304430413341333134390D0A3A31303159
:103A60003443303030333033303337333633303320
:103A70003033303330343433303431333334313322
:103A8000333331333343460D0A3A31303134443025
:103A90003030333033333330333333323334333104
:103AA00033333330333333303333333033343335EC
:103AB000333345410D0A3A313031344530303033FB
:103AC00031333433363333333033333330333833C5
:103AD0003830443041334133313330333033373190
:103AE000320D0A3A313031344630303033373330EA
:103AF0003330333033333338333333373333333096
:103B000033333333333333343333333142430D0AB6
:103B10003A31303135303030303333333233333380
:103B20003233343333333333373333333033333364
:103B300037333333383333333541300D0A3A31308C
:103B4000313531303030333333363334333233314F
:103B5000333830443041334133313330333033370D
:103B600033383330333045320D0A3A313031353263
:103B70003030303330333333393333333733343316
:103B80003533333332333333343333333033333306
:103B900030333338370D0A3A313031353330303045
:103BA00033343334333233343336333333333334DF
:103BB00033323334333333303434333034313333DA
:103BC00035430D0A3A313031353430303034313309
:103BD0003233393044304133413331333033303391
:103BE0003733393330333033303333333141390DB8
:103BF0000A3A3130313535303030333333303333C6
:103C0000333033333332333433323333333033338B
:103C10003330333333303333333036450D0A3A31B2
:103C20003031353630303033333331333333303372
:103C30003333303333333033333338333333373351
:103C40003333303333333434460D0A3A313031357F
:103C5000373030303044304133413331333033301A
:103C6000333734313330333033303333333133342B
:103C70003333333438320D0A3A313031353830305D
:103C80003033353333333133333332333433333307
:103C900033333733333330333333303333333033F9
:103CA0003432460D0A3A313031353930303033351F
:103CB00033333339333333303333333833333336C9
:103CC0003333333034343337304430413341343498
:103CD0000D0A3A3130313541303030333133303301
:103CE00030333734323330333033303333333033AF
:103CF000333330333333333333333031320D0A3AE5
:103D0000313031354230303033343332333333397C
:103D10003333333733333336333333373334333367
:103D2000333034343330343144300D0A3A313031A9
:103D3000354330303033333431333333313333334D
:103D40003033333330333333323044304133413323
:103D5000313330333033360D0A3A31303135443077
:103D6000303033373433333033303330333333322E
:103D7000333433333333333033333330333333301B
:103D8000333344390D0A3A31303135453030303330
:103D900030333333303333333033333331333433FD
:103DA00036333333323333333033333330333344D6
:103DB000390D0A3A3130313546303030333933330A
:103DC0003338333333373435333330443041334190
:103DD00033313330333033373434333044380D0AF1
:103DE0003A313031363030303033303330333333B2
:103DF0003033333333333333313333333233333399
:103E000030333333333333333442380D0A3A3130BD
:103E1000313631303030333333313334333333347C
:103E2000333333333339333433353333333133335B
:103E300033303333333439350D0A3A313031363299
:103E40003030303333333034333332304430413335
:103E5000413331333033303337343533303330332B
:103E600030333343310D0A3A31303136333030306C
:103E7000333033333339333333393333333033330C
:103E80003331333333343334333133303434333008
:103E900036420D0A3A313031363430303034313335
:103EA00033343133333331333333303333333033EB
:103EB0003333323334333433333330333035420DEC
:103EC0000A3A3130313635303030333930443041D0
:103ED00033413331333033303337343633303330AA
:103EE0003330333333303333333039430D0A3A31DF
:103EF000303136363030303333333033333331339F
:103F00003333303333333033333339333333313383
:103F10003333303333333135360D0A3A31303136BD
:103F20003730303033333330333433333334333565
:103F30003333333033333331333333383432343350
:103F40003044304136390D0A3A313031363830306C
:103F5000303341333133303330333833303330332F
:103F60003033303333333033343331333333393325
:103F70003333300D0A3A3130313639303030333264
:103F800033333330333333373333333333333338FB
:103F900033333337333433353333333033333131F1
:103FA0000D0A3A3130313641303030333433333327
:103FB00030333333303333333033343333333833D4
:103FC000373044304133413331333035350D0A3ADF
:103FD00031303136423030303330333833313330B2
:103FE00033303330333333363333333033343332A7
:103FF000333433353330343446320D0A3A313031CC
:10400000364330303033303431333334313333337B
:104010003133333330333333303333333233343378
:10402000353333333044410D0A3A31303136443080
:104030003030333333303333333033333338343356
:10404000343130443041334133313330333033381D
:10405000333230390D0A3A31303136453030303371
:10406000303330333033333330333333303333332F
:1040700030333433343333333633333336333344FA
:10408000340D0A3A3130313646303030333733333D
:1040900033383333333233333330333333393333E9
:1040A00033333333333833333337333441350D0A15
:1040B0003A313031373030303033353333333033D9
:1040C000363337304430413341333133303330339A
:1040D00038333333303330333046370D0A3A3130EA
:1040E00031373130303033333334333333303333AB
:1040F0003330333333313333333433333335333392
:1041000033333333333539420D0A3A3130313732B4
:10411000303030333333363333333733333335336F
:104120003433323333333933333337333433353352
:1041300034333137340D0A3A31303137333030309F
:10414000333433383044304133413331333033301A
:104150003338333433303330333033333333333035
:1041600043390D0A3A31303137343030303434335A
:104170003034313333343133333331333333303319
:104180003333303333333233343336333334340D23
:104190000A3A313031373530303033303333333021
:1041A00033333330333333303333333433333330E7
:1041B0003333333034333337304437430D0A3A31F5
:1041C00030313736303030304133413331333033B2
:1041D00030333833353330333033303333333033B7
:1041E0003333343333333637340D0A3A31303137E1
:1041F000373030303333333833343336333333328C
:10420000333333353334333133333330333433337F
:104210003333333632460D0A3A31303137383030A5
:10422000303333333033333330333333303333336A
:104230003233333330333334343044304133413329
:104240003136460D0A3A313031373930303033307B
:104250003330333833363330333033303334333430
:104260003333333633333336333333373333313415
:104270000D0A3A313031374130303033383333334F
:1042800032333333303333333933333330333333FF
:10429000343333333533343331333330330D0A3A37
:1042A00031303137423030303339333333303330DB
:1042B00034343330343133373334304430413341A4
:1042C000333133303330333832330D0A3A31303111
:1042D00037433030303337333033303330333334A7
:1042E00031333333313333333033333330333333A8
:1042F000333333333045420D0A3A313031374430AD
:10430000303033333330333333303333333033338C
:104310003339333333393333333533333330333362
:10432000333344370D0A3A3130313745303030338A
:104330003433313333333233333434304430413334
:104340004133313330333033383338333033303036
:10435000360D0A3A3130313746303030333033336E
:10436000333033333331333333343333333633331E
:1043700033333333333533333336333342380D0A43
:104380003A313031383030303033373333333633FD
:1043900034333233333339333333373334333533E0
:1043A00033333033333334333339360D0A3A313023
:1043B00031383130303033303330333730443041BE
:1043C00033413331333033303338333933303330B2
:1043D00033303333333045420D0A3A3130313832DD
:1043E00030303033343336333333323333333533A1
:1043F000333336333333393333333833333335337D
:1044000033333037360D0A3A3130313833303030CB
:10441000333433363334333333303434333034316C
:104420003333343133333331333333303333333461
:1044300035300D0A3A313031383430303030443094
:104440004133413331333033303338343133303327
:104450003033303333333033333333333342310D4E
:104460000A3A31303138353030303331333333304C
:104470003333333033333330333333333334333113
:104480003333333233333330333336380D0A3A3142
:1044900030313836303030333833333332333333EE
:1044A00030333433353333333333333334333033DE
:1044B0003830443041334138390D0A3A31303138DF
:1044C00037303030333133303330333834323330C7
:1044D00033303330333333353333333133333339AC
:1044E0003333333332460D0A3A31303138383030D5
:1044F0003033333335333333353333333933333385
:104500003933333335333333303333333333343375
:104510003131410D0A3A31303138393030303333AE
:104520003332333333303333333933333332343557
:104530003334304430413341333133303330353428
:104540000D0A3A313031384130303033383433337A
:104550003033303330333333343334333533333330
:10456000313333333433333335333346370D0A3A4B
:104570003130313842303030333333343336333402
:104580003333333034343330343133333431333301
:10459000333133333330333344310D0A3A31303130
:1045A00038433030303330333333333333333233D3
:1045B00031333230443041334133313330333033AF
:1045C000383434333032430D0A3A313031384430E4
:1045D00030303330333033333330333333303333BD
:1045E0003330333333353333333633333337333395
:1045F000333544430D0A3A313031384530303033A9
:10460000343332333333393333333733343335336D
:104610003333303333333433333330333333304362
:10462000330D0A3A3130313846303030333333309D
:104630003433333630443041334133313330333027
:1046400033383435333033303330333345410D0A6A
:104650003A3130313930303030333433333336332C
:10466000333338333433313333333933333336330D
:1046700033333033333336333439350D0A3A31304E
:1046800031393130303033333333333133343336FF
:1046900033343336333333323333333433333336E3
:1046A00033333330333838430D0A3A31303139320D
:1046B00030303033343044304133413331333033B0
:1046C00030333834363330333033303333333433BC
:1046D00033333343360D0A3A3130313933303030E9
:1046E000333333313333333533343331333034349C
:1046F0003330343133333431333333313333333094
:1047000035360D0A3A3130313934303030333333C5
:10471000303333333333333333333333303333336F
:104720003033333330333133323044304143350D5D
:104730000A3A31303139353030303341333133306A
:104740003330333933303330333033303333333045
:104750003333333633333334333335440D0A3A315C
:104760003031393630303033313333333033333323
:10477000343333333233333332333333323333330B
:104780003633333333333334420D0A3A313031392F
:1047900037303030333133343333333433323333EF
:1047A00033353333333433393431304430413341AA
:1047B0003331333036450D0A3A3130313938303003
:1047C00030333033393331333033303330333333C4
:1047D00030333333313333333033333330333333B4
:1047E0003133430D0A3A31303139393030303333D7
:1047F0003338333333373333333133333330333385
:104800003331333333303333333033333333314273
:104810000D0A3A31303139413030303333333833A7
:104820003333363334333533393435304430413330
:10483000413331333033303339333232460D0A3A73
:10484000313031394230303033303330333033343B
:104850003331333333393330343433303431333329
:10486000343133333331333344360D0A3A31303156
:104870003943303030333033333330333333333301
:104880003333343333333033333330333333303300
:10489000333330333346380D0A3A3130313944300E
:1048A00030303334333333303435333030443041C7
:1048B00033413331333033303339333333303330C2
:1048C000333031440D0A3A313031394530303033EC
:1048D00033333033343333333333343333333733A5
:1048E0003433343333333033333334333333344387
:1048F000330D0A3A313031394630303033333332C8
:10490000333333353333333633333334333333366E
:1049100033343333333333323333333042320D0AAB
:104920003A3130314130303030333533313044304A
:10493000413341333133303330333933343330332F
:1049400030333033343333333346370D0A3A313072
:104950003141313030303332333333383333333520
:104960003333333033333336333433333333333118
:1049700033343336333338440D0A3A31303141322F
:1049800030303033323333333833333333333333FC
:1049900030333333353334333433303434333533E5
:1049A00032304439380D0A3A313031413330303009
:1049B00030413341333133303330333933353330B1
:1049C00033303330333034313333343133333331C4
:1049D00038410D0A3A3130314134303030333333DD
:1049E000303333333033333333333333353333339B
:1049F0003033333330333333303333333637300DB2
:104A00000A3A313031413530303033343335333395
:104A1000333133343336333433333333333633355E
:104A20003436304430413341333138320D0A3A3173
:104A30003031413630303033303330333933363340
:104A4000303330333033333333333333353334333C
:104A50003333333332333334410D0A3A3130314159
:104A6000373030303331333333333334333333341B
:104A70003333333333353333333033343336333402
:104A80003336333432450D0A3A3130314138303023
:104A900030333633343336333333383333333234DD
:104AA00034333930443041334133313330333033B0
:104AB0003934450D0A3A31303141393030303337ED
:104AC00033303330333033333331333333303333C4
:104AD00033323333333433333335333333313230AA
:104AE0000D0A3A31303141413030303334333633CE
:104AF0003333323333333033333337333333323387
:104B0000333336333034343330343145370D0A3AA9
:104B1000313031414230303033333431333333315B
:104B20003338333130443041334133313330333033
:104B3000333933383330333033320D0A3A31303190
:104B40004143303030333033333330333333303329
:104B50003333333333333633333330333333303328
:104B6000333330333446340D0A3A31303141443036
:104B70003030333133333338333333353333333009
:104B800033333336333433333333333133343336EF
:104B9000333343450D0A3A313031414530303033FB
:104BA00038333033383044304133413331333033AC
:104BB00030333933393330333033303333333230C9
:104BC000440D0A3A313031414630303033333330DE
:104BD00033343332333433333333333433333334A2
:104BE00033333330333333383333333242350D0AD2
:104BF0003A31303142303030303333333033333385
:104C0000353333333333333334333333353333336F
:104C100031333433313436343238340D0A3A3130AA
:104C20003142313030303044304133413331333030
:104C30003330333934313330333033303333333945
:104C400033333335333344320D0A3A313031423263
:104C5000303030333033333336333433333333332C
:104C6000313334333633343335333333393330340B
:104C700034333036450D0A3A31303142333030303A
:104C800034313333343133333331333333303333FB
:104C900033303333333333323336304430413341BE
:104CA00041370D0A3A31303142343030303331330C
:104CB00030333033393432333033303330333333CD
:104CC0003733333330333333303333333036360DD9
:104CD0000A3A3130314235303030333433363333C1
:104CE0003332333333303333333533333330333399
:104CF0003334333333353333333834450D0A3A31B3
:104D0000303142363030303334333133333339336A
:104D10003333353333333034353333304430413348
:104D20004133313330333037460D0A3A3130314276
:104D3000373030303339343333303330333033334A
:104D4000333633343333333333313334333633342C
:104D50003336333331450D0A3A3130314238303051
:104D60003033323333333033333333333433333319
:104D700033333433333334333333303333333933FE
:104D80003332330D0A3A3130314239303030333238
:104D900033333330333433333431333330443041CD
:104DA00033413331333033303339343433303436C4
:104DB0000D0A3A3130314241303030333033303304
:104DC00033333233333338333333373333333033AE
:104DD000333337333333373330343446300D0A3AD4
:104DE000313031424230303033303431333334318A
:104DF000333333313333333033333330333333338B
:104E0000333333383333333045320D0A3A313031AE
:104E10004243303030333333303332343230443045
:104E20004133413331333033303339343533303338
:104E3000303330333331420D0A3A3130314244306D
:104E40003030333033333336333433333333333139
:104E50003334333633343333333333343333333718
:104E6000333343430D0A3A31303142453030303329
:104E700038333433333333333233333331333433FE
:104E800031333333363333333433333336333742DA
:104E9000380D0A3A31303142463030303431304406
:104EA00030413341333133303330333934363330BA
:104EB00033303330333333323334333245380D0A01
:104EC0003A313031433030303033333339333333A8
:104ED000363334333533333330333333343333339E
:104EE00030333333303333333141320D0A3A3130DA
:104EF0003143313030303333333833333336333377
:104F0000333033333333333433323333333233396F
:104F100033353044304144370D0A3A313031433271
:104F20003030303341333133303330343133303358
:104F30003033303330333333303333333033333350
:104F400036333038390D0A3A31303143333030306E
:104F50003434333034313333343133333331333326
:104F60003330333333303333333333333339333311
:104F700034430D0A3A31303143343030303330333A
:104F800033333033333330333333363333333433F3
:104F90003033383044304133413331333042340DD3
:104FA0000A3A3130314335303030333034313331F7
:104FB00033303330333033333336333333343334C5
:104FC0003336333333323333333134460D0A3A31E7
:104FD000303143363030303333333133333332339F
:104FE0003333383333333733333330333333363388
:104FF0003433333333333133460D0A3A31303143AE
:10500000373030303334333633343333333333346F
:105010003335343130443041334133313330333040
:105020003431333236310D0A3A3130314338303091
:105030003033303330333033333337333333333348
:10504000343334333333323333333033343336332E
:105050003332370D0A3A3130314339303030333062
:105060003333333633333337333333363333333108
:1050700033333334333333363333333333333042F0
:105080000D0A3A3130314341303030333633333327
:1050900034333633353044304133413331333033B8
:1050A000303431333333303330333034360D0A3A21
:1050B00031303143423030303330343433303431B6
:1050C00033333431333333313333333033333330B9
:1050D000333333333334333144360D0A3A313031DC
:1050E000434330303033333330333333303333337F
:1050F000303333333533333336333333373333337A
:10510000363334333245310D0A3A3130314344308D
:105110003030343233363044304133413331333040
:105120003330343133343330333033303333333955
:10513000333330360D0A3A31303143453030303375
:10514000373334333533333330333333343333332A
:105150003033333330333333303333333433334317
:10516000370D0A3A3130314346303030333633333D
:1051700033383334333133333339333333363333F2
:1051800033303333333633343335304443370D0A19
:105190003A313031443030303030413341333133C3
:1051A00030333034313335333033303330333433DC
:1051B00033333333313334333643330D0A3A3130FA
:1051C00031443130303033333331333333383333A8
:1051D000333633333330333333333334333233339F
:1051E00033323333333039340D0A3A3130314432CB
:1051F0003030303333333733333333333034343385
:105200003034313333343133373432304430413356
:1052100041333138460D0A3A313031443330303081
:10522000333033303431333633303330333033335B
:105230003331333333303333333033333333333445
:1052400037380D0A3A31303144343030303332336C
:105250003333303333333033333330333333313329
:105260003333343333333533333335333336410D1E
:105270000A3A313031443530303033353333333618
:1052800033333336333333353334343230443041CF
:105290003341333133303330343137420D0A3A3110
:1052A00030314436303030333733303330333033CD
:1052B00033333933333339333333363333333033B2
:1052C0003333333334333233430D0A3A31303144DC
:1052D00037303030333333323333333033333334A6
:1052E000333333383334333533333331333333308B
:1052F0003333333433320D0A3A31303144383030BD
:10530000303333333033333330333233313044306E
:105310004133413331333033303431333833303348
:105320003036460D0A3A313031443930303033307E
:10533000333333323333333433333331333433333E
:10534000333433353333333133343336333331322B
:105350000D0A3A3130314441303030333033333359
:105360003833333337333034343330343133333408
:10537000313333333133333330333344420D0A3A2C
:1053800031303144423030303330333434363044CD
:1053900030413341333133303330343133393330CA
:1053A000333033303333333332370D0A3A3130311F
:1053B00044433030303334333333333330333333A7
:1053C00030333333303333333333343333333333B2
:1053D000313333333045460D0A3A313031444430AD
:1053E0003030333333333333333833333330333391
:1053F0003330333333303334333333333332333086
:10540000333944340D0A3A3130314445303030308C
:10541000443041334133313330333034313431333C
:10542000303330333033333330333333313333305D
:10543000350D0A3A3130314446303030333433336D
:105440003330333333303333333033333338333330
:1054500033333333333033333330333342430D0A52
:105460003A31303145303030303330333333383304
:1054700033333033333332333433333333333333FF
:1054800031333630443041334145410D0A3A3130F1
:1054900031453130303033313330333034313432E0
:1054A00033303330333033333330333333393334D1
:1054B00033333334333438300D0A3A3130314532F6
:1054C00030303033343334333433343334333333B0
:1054D00030343433303431333334313333333133A4
:1054E00033333035420D0A3A3130314533303030C4
:1054F0003333333033333333333433343333333080
:105500003436333230443041334133313330333049
:1055100042340D0A3A313031453430303034313490
:10552000333330333033303333333033333330335A
:105530003333303334333333333334333335340D5F
:105540000A3A31303145353030303330333333314E
:105550003333333433333330333333303333333221
:105560003333333633333332333335420D0A3A3142
:1055700030314536303030333133343334333333F4
:1055800039343533323044304133413331333033C1
:105590003034313434333035460D0A3A3130314508
:1055A00037303030333033303334333333333331D7
:1055B00033333332333333383333333033333330BD
:1055C0003334333333410D0A3A31303145383030DA
:1055D0003033343332333433353333333633333398
:1055E0003033333336333333303333333033333391
:1055F0003032350D0A3A31303145393030303333BD
:105600003338343134313044304133413331333045
:105610003330343134353330333033303333324157
:105620000D0A3A3130314541303030333333333382
:10563000303334333333333335333034343330343D
:10564000313333343133333331333344440D0A3A55
:10565000313031454230303033303333333033330F
:10566000333333343335333333303333333033330D
:10567000333033333330333130330D0A3A31303154
:1056800045433030303331304430413341333133AE
:1056900030333034313436333033303330333333E6
:1056A000303333333831410D0A3A313031454430EB
:1056B00030303333333033333332333433333333C3
:1056C00033333333333033343332333333303334AF
:1056D000333444390D0A3A313031454530303033B6
:1056E0003433343333333033343333333333343389
:1056F0003333303333333133383334304430413063
:10570000460D0A3A3130314546303030334133317D
:10571000333033303432333033303330333033336B
:1057200033343333333033333330333342350D0A8C
:105730003A31303146303030303330333333363332
:10574000333332333333313334333333343332332B
:1057500034333533333336333339440D0A3A313049
:105760003146313030303330333333363333333006
:1057700033333330333333363338343330443041DA
:1057800033413331333043430D0A3A3130314632FD
:1057900030303033303432333133303330333033F0
:1057A00033333633303434333034313333343133CC
:1057B00033333135380D0A3A3130314633303030F9
:1057C00033333330333333303333333333343336AB
:1057D00033333330333333303333333033333331A4
:1057E00037450D0A3A3130314634303030333333B7
:1057F0003833333337333333303435333430443064
:105800004133413331333033303432333238410D68
:105810000A3A31303146353030303330333033307E
:10582000333333333334333233333332333333304C
:105830003333333233343336333335420D0A3A316E
:10584000303146363030303335333333373333331A
:10585000303333333733333330333333303333331D
:105860003233333336333333450D0A3A3130314630
:1058700037303030333533333337333634363044E2
:1058800030413341333133303330343233333330DA
:105890003330333035460D0A3A3130314638303006
:1058A00030333333313333333833333336333333C5
:1058B00030333333333334333633333332333333B8
:1058C0003031450D0A3A31303146393030303333DA
:1058D0003330333333363333333333333335333495
:1058E0003336333433353330343433303431454662
:1058F0000D0A3A31303146413030303339343230AC
:105900004430413341333133303330343233343344
:10591000303330333033333431333332370D0A3AA6
:10592000313031464230303033313333333033333A
:10593000333033333334333333303333333033333F
:10594000333033333330333330340D0A3A3130317E
:1059500046433030303335333333373333333333F7
:105960003333323333333233333336333333353304
:10597000373338304446350D0A3A313031464430F9
:1059800030303041334133313330333034323335DA
:1059900033303330333033333333333333323333E1
:1059A000333646310D0A3A313031464530303033E6
:1059B00033333733333335333333303333333633B1
:1059C0003333343333333633333330333333364294
:1059D000370D0A3A313031464630303033333335C3
:1059E000333333363334333433333337333333357C
:1059F00033333434304430413341333144440D0A7D
:105A00003A3130323030303030333033303432337A
:105A1000363330333033303333333133333335335C
:105A200033333733333334333339380D0A3A313083
:105A30003230313030303331333433343333333741
:105A40003333333633333334333433313334333322
:105A500033303434333037440D0A3A313032303257
:105A60003030303431333334313333333133333313
:105A700030333633383044304133413331333033CF
:105A800030343241320D0A3A313032303330303036
:105A900033373330333033303333333033333334DD
:105AA00033333331333333303333333033333330D1
:105AB00038320D0A3A31303230343030303333330B
:105AC000323333333633333336333333353333339F
:105AD0003233333336333333343333333135380DB4
